{
  "address": "0xB60855ED06eC32a806A9fCDc9791B0b1a4c546AC",
  "abi": [
    {
      "inputs": [
        {
          "internalType": "address",
          "name": "initialOwner",
          "type": "address"
        },
        {
          "internalType": "address",
          "name": "initHypurrfiPool",
          "type": "address"
        },
        {
          "internalType": "address",
          "name": "initHyperlendPool",
          "type": "address"
        },
        {
          "internalType": "address",
          "name": "initUsdtAddress",
          "type": "address"
        }
      ],
      "stateMutability": "nonpayable",
      "type": "constructor"
    },
    {
      "inputs": [
        {
          "internalType": "enum MaxYieldUSDT.Action",
          "name": "action",
          "type": "uint8"
        }
      ],
      "name": "ActionNotFound",
      "type": "error"
    },
    {
      "inputs": [],
      "name": "EnforcedPause",
      "type": "error"
    },
    {
      "inputs": [],
      "name": "ExpectedPause",
      "type": "error"
    },
    {
      "inputs": [],
      "name": "InvalidAddress",
      "type": "error"
    },
    {
      "inputs": [],
      "name": "NotOwner",
      "type": "error"
    },
    {
      "inputs": [
        {
          "internalType": "address",
          "name": "owner",
          "type": "address"
        }
      ],
      "name": "OwnableInvalidOwner",
      "type": "error"
    },
    {
      "inputs": [
        {
          "internalType": "address",
          "name": "account",
          "type": "address"
        }
      ],
      "name": "OwnableUnauthorizedAccount",
      "type": "error"
    },
    {
      "inputs": [],
      "name": "TokenNotAllowed",
      "type": "error"
    },
    {
      "anonymous": false,
      "inputs": [
        {
          "indexed": false,
          "internalType": "address",
          "name": "asset",
          "type": "address"
        },
        {
          "indexed": false,
          "internalType": "uint256",
          "name": "amount",
          "type": "uint256"
        },
        {
          "indexed": false,
          "internalType": "address",
          "name": "onBehalfOf",
          "type": "address"
        },
        {
          "indexed": false,
          "internalType": "uint16",
          "name": "referralCode",
          "type": "uint16"
        }
      ],
      "name": "HyperlendSupplyUSDT",
      "type": "event"
    },
    {
      "anonymous": false,
      "inputs": [
        {
          "indexed": false,
          "internalType": "address",
          "name": "asset",
          "type": "address"
        },
        {
          "indexed": false,
          "internalType": "uint256",
          "name": "amount",
          "type": "uint256"
        },
        {
          "indexed": false,
          "internalType": "address",
          "name": "to",
          "type": "address"
        }
      ],
      "name": "HyperlendWithdrawUSDT",
      "type": "event"
    },
    {
      "anonymous": false,
      "inputs": [
        {
          "indexed": false,
          "internalType": "address",
          "name": "asset",
          "type": "address"
        },
        {
          "indexed": false,
          "internalType": "uint256",
          "name": "amount",
          "type": "uint256"
        },
        {
          "indexed": false,
          "internalType": "address",
          "name": "onBehalfOf",
          "type": "address"
        },
        {
          "indexed": false,
          "internalType": "uint16",
          "name": "referralCode",
          "type": "uint16"
        }
      ],
      "name": "HypurrfiSupplyUSDT",
      "type": "event"
    },
    {
      "anonymous": false,
      "inputs": [
        {
          "indexed": false,
          "internalType": "address",
          "name": "asset",
          "type": "address"
        },
        {
          "indexed": false,
          "internalType": "uint256",
          "name": "amount",
          "type": "uint256"
        },
        {
          "indexed": false,
          "internalType": "address",
          "name": "to",
          "type": "address"
        }
      ],
      "name": "HypurrfiWithdrawUSDT",
      "type": "event"
    },
    {
      "anonymous": false,
      "inputs": [
        {
          "indexed": true,
          "internalType": "address",
          "name": "previousOwner",
          "type": "address"
        },
        {
          "indexed": true,
          "internalType": "address",
          "name": "newOwner",
          "type": "address"
        }
      ],
      "name": "OwnershipTransferred",
      "type": "event"
    },
    {
      "anonymous": false,
      "inputs": [
        {
          "indexed": false,
          "internalType": "address",
          "name": "account",
          "type": "address"
        }
      ],
      "name": "Paused",
      "type": "event"
    },
    {
      "anonymous": false,
      "inputs": [
        {
          "indexed": false,
          "internalType": "address",
          "name": "account",
          "type": "address"
        }
      ],
      "name": "Unpaused",
      "type": "event"
    },
    {
      "inputs": [
        {
          "internalType": "enum MaxYieldUSDT.Action",
          "name": "action",
          "type": "uint8"
        },
        {
          "internalType": "bytes",
          "name": "data",
          "type": "bytes"
        }
      ],
      "name": "execute",
      "outputs": [],
      "stateMutability": "nonpayable",
      "type": "function"
    },
    {
      "inputs": [],
      "name": "hyperlendPool",
      "outputs": [
        {
          "internalType": "contract IPool",
          "name": "",
          "type": "address"
        }
      ],
      "stateMutability": "view",
      "type": "function"
    },
    {
      "inputs": [],
      "name": "hypurrfiPool",
      "outputs": [
        {
          "internalType": "contract IPool",
          "name": "",
          "type": "address"
        }
      ],
      "stateMutability": "view",
      "type": "function"
    },
    {
      "inputs": [],
      "name": "owner",
      "outputs": [
        {
          "internalType": "address",
          "name": "",
          "type": "address"
        }
      ],
      "stateMutability": "view",
      "type": "function"
    },
    {
      "inputs": [],
      "name": "pause",
      "outputs": [],
      "stateMutability": "nonpayable",
      "type": "function"
    },
    {
      "inputs": [],
      "name": "paused",
      "outputs": [
        {
          "internalType": "bool",
          "name": "",
          "type": "bool"
        }
      ],
      "stateMutability": "view",
      "type": "function"
    },
    {
      "inputs": [],
      "name": "renounceOwnership",
      "outputs": [],
      "stateMutability": "nonpayable",
      "type": "function"
    },
    {
      "inputs": [
        {
          "internalType": "address",
          "name": "newOwner",
          "type": "address"
        }
      ],
      "name": "transferOwnership",
      "outputs": [],
      "stateMutability": "nonpayable",
      "type": "function"
    },
    {
      "inputs": [],
      "name": "unpause",
      "outputs": [],
      "stateMutability": "nonpayable",
      "type": "function"
    },
    {
      "inputs": [],
      "name": "usdt",
      "outputs": [
        {
          "internalType": "contract IERC20",
          "name": "",
          "type": "address"
        }
      ],
      "stateMutability": "view",
      "type": "function"
    },
    {
      "inputs": [
        {
          "internalType": "address",
          "name": "token",
          "type": "address"
        },
        {
          "internalType": "address",
          "name": "to",
          "type": "address"
        },
        {
          "internalType": "uint256",
          "name": "amount",
          "type": "uint256"
        }
      ],
      "name": "withdrawERC20",
      "outputs": [],
      "stateMutability": "nonpayable",
      "type": "function"
    }
  ],
  "transactionHash": "0x49c9f5f772854332c19cbb3061a88c7b362b12b897b27bf3870840c1afc5fc88",
  "args": [
    "0x0A25D6bB86908A2a87d29034A0D07294C972EafE",
    "0xceCcE0EB9DD2Ef7996e01e25DD70e461F918A14b",
    "0x00A89d7a5A02160f20150EbEA7a2b5E4879A1A8b",
    "0xB8CE59FC3717ada4C02eaDF9682A9e934F625ebb"
  ],
  "numDeployments": 1,
  "solcInputHash": "e6172fec7e06195d6a8d45e60a786c20",
  "bytecode": "0x60e060405234801561001057600080fd5b506040516111fc3803806111fc83398101604081905261002f91610148565b836001600160a01b03811661005e57604051631e4fbdf760e01b81526000600482015260240160405180910390fd5b610067816100d3565b506001600160a01b038316158061008557506001600160a01b038216155b8061009757506001600160a01b038116155b156100b55760405163e6c4247b60e01b815260040160405180910390fd5b6001600160a01b0392831660805290821660a0521660c0525061019c565b600080546001600160a01b03838116610100818102610100600160a81b0319851617855560405193049190911692909183917f8be0079c531659141344cd1fd0a4f28419497f9722a3daafe3b4186f6b6457e091a35050565b80516001600160a01b038116811461014357600080fd5b919050565b6000806000806080858703121561015e57600080fd5b6101678561012c565b93506101756020860161012c565b92506101836040860161012c565b91506101916060860161012c565b905092959194509250565b60805160a05160c051610fd061022c6000396000818160b3015281816104d30152818161056e0152818161062a01528181610787015281816108ff0152818161099a01528181610a560152610ba301526000818161012a01528181610a2701528181610adb0152610c33015260008181610177015281816105fb015281816106af01526108170152610fd06000f3fe608060405234801561001057600080fd5b50600436106100a95760003560e01c8063715018a611610071578063715018a61461014c5780638456cb59146101545780638da5cb5b1461015c578063ed59733514610172578063f2fde38b14610199578063fb4d364c146101ac57600080fd5b80632f48ab7d146100ae5780633f4ba83a146100f257806344004cc1146100fc5780635c975abb1461010f578063660dc85414610125575b600080fd5b6100d57f000000000000000000000000000000000000000000000000000000000000000081565b6040516001600160a01b0390911681526020015b60405180910390f35b6100fa6101bf565b005b6100fa61010a366004610d1b565b6101d1565b60005460ff1660405190151581526020016100e9565b6100d57f000000000000000000000000000000000000000000000000000000000000000081565b6100fa610252565b6100fa610264565b60005461010090046001600160a01b03166100d5565b6100d57f000000000000000000000000000000000000000000000000000000000000000081565b6100fa6101a7366004610d5c565b610274565b6100fa6101ba366004610d80565b6102b7565b6101c761036b565b6101cf61039e565b565b6101d961036b565b60405163a9059cbb60e01b81526001600160a01b0383811660048301526024820183905284169063a9059cbb906044016020604051808303816000875af1158015610228573d6000803e3d6000fd5b505050506040513d601f19601f8201168201806040525081019061024c9190610e0b565b50505050565b61025a61036b565b6101cf60006103f0565b61026c61036b565b6101cf610449565b61027c61036b565b6001600160a01b0381166102ab57604051631e4fbdf760e01b8152600060048201526024015b60405180910390fd5b6102b4816103f0565b50565b6102bf610486565b60008360038111156102d3576102d3610e2d565b036102e7576102e282826104aa565b505050565b60018360038111156102fb576102fb610e2d565b0361030a576102e28282610761565b600283600381111561031e5761031e610e2d565b0361032d576102e282826108d6565b600383600381111561034157610341610e2d565b03610350576102e28282610b7d565b8260405163f41c569960e01b81526004016102a29190610e43565b6000546001600160a01b036101009091041633146101cf5760405163118cdaa760e01b81523360048201526024016102a2565b6103a6610ce3565b6000805460ff191690557f5db9ee0a495bf2e6ff9c91a7834c1ba4fdd244a5e8aa4e537bd38aeae4b073aa335b6040516001600160a01b03909116815260200160405180910390a1565b600080546001600160a01b03838116610100818102610100600160a81b0319851617855560405193049190911692909183917f8be0079c531659141344cd1fd0a4f28419497f9722a3daafe3b4186f6b6457e091a35050565b610451610486565b6000805460ff191660011790557f62e78cea01bee320cd4e420270b5ea74000d11b0c9f74754ebdbfc544b05a2586103d33390565b60005460ff16156101cf5760405163d93c066560e01b815260040160405180910390fd5b60008080806104bc8560048189610e6b565b8101906104c99190610e95565b93509350935093507f00000000000000000000000000000000000000000000000000000000000000006001600160a01b0316846001600160a01b0316146105235760405163514e24c360e11b815260040160405180910390fd5b6001600160a01b038216331461054c576040516330cd747160e01b815260040160405180910390fd5b6040516323b872dd60e01b8152336004820152306024820152604481018490527f00000000000000000000000000000000000000000000000000000000000000006001600160a01b0316906323b872dd906064016020604051808303816000875af11580156105bf573d6000803e3d6000fd5b505050506040513d601f19601f820116820180604052508101906105e39190610e0b565b5060405163095ea7b360e01b81526001600160a01b037f000000000000000000000000000000000000000000000000000000000000000081166004830152602482018590527f0000000000000000000000000000000000000000000000000000000000000000169063095ea7b3906044016020604051808303816000875af1158015610673573d6000803e3d6000fd5b505050506040513d601f19601f820116820180604052508101906106979190610e0b565b5060405163617ba03760e01b81526001600160a01b037f0000000000000000000000000000000000000000000000000000000000000000169063617ba037906106ea908790879087908790600401610eef565b600060405180830381600087803b15801561070457600080fd5b505af1158015610718573d6000803e3d6000fd5b505050507fac64f987f0d2d5fde94defaafaf69556662762861ce9dd8758af434a5abfb5ab848484846040516107519493929190610eef565b60405180910390a1505050505050565b600080806107728460048188610e6b565b81019061077f9190610f1c565b9250925092507f00000000000000000000000000000000000000000000000000000000000000006001600160a01b0316836001600160a01b0316146107d75760405163514e24c360e11b815260040160405180910390fd5b6001600160a01b0381163314610800576040516330cd747160e01b815260040160405180910390fd5b604051631a4ca37b60e21b81526001600160a01b037f000000000000000000000000000000000000000000000000000000000000000016906369328dec9061085090869086908690600401610f5e565b6020604051808303816000875af115801561086f573d6000803e3d6000fd5b505050506040513d601f19601f820116820180604052508101906108939190610f81565b507f7c4f9de23999ac6f8aab61d58c5146e463a8b6524b8b3c533cb44ef749471ffd8383836040516108c793929190610f5e565b60405180910390a15050505050565b60008080806108e88560048189610e6b565b8101906108f59190610e95565b93509350935093507f00000000000000000000000000000000000000000000000000000000000000006001600160a01b0316846001600160a01b03161461094f5760405163514e24c360e11b815260040160405180910390fd5b6001600160a01b0382163314610978576040516330cd747160e01b815260040160405180910390fd5b6040516323b872dd60e01b8152336004820152306024820152604481018490527f00000000000000000000000000000000000000000000000000000000000000006001600160a01b0316906323b872dd906064016020604051808303816000875af11580156109eb573d6000803e3d6000fd5b505050506040513d601f19601f82011682018060405250810190610a0f9190610e0b565b5060405163095ea7b360e01b81526001600160a01b037f000000000000000000000000000000000000000000000000000000000000000081166004830152602482018590527f0000000000000000000000000000000000000000000000000000000000000000169063095ea7b3906044016020604051808303816000875af1158015610a9f573d6000803e3d6000fd5b505050506040513d601f19601f82011682018060405250810190610ac39190610e0b565b5060405163617ba03760e01b81526001600160a01b037f0000000000000000000000000000000000000000000000000000000000000000169063617ba03790610b16908790879087908790600401610eef565b600060405180830381600087803b158015610b3057600080fd5b505af1158015610b44573d6000803e3d6000fd5b505050507f6da70d058b0fa53652e0d06f358a33911cd52ad832976c6d8c69a07b4af7a460848484846040516107519493929190610eef565b60008080610b8e8460048188610e6b565b810190610b9b9190610f1c565b9250925092507f00000000000000000000000000000000000000000000000000000000000000006001600160a01b0316836001600160a01b031614610bf35760405163514e24c360e11b815260040160405180910390fd5b6001600160a01b0381163314610c1c576040516330cd747160e01b815260040160405180910390fd5b604051631a4ca37b60e21b81526001600160a01b037f000000000000000000000000000000000000000000000000000000000000000016906369328dec90610c6c90869086908690600401610f5e565b6020604051808303816000875af1158015610c8b573d6000803e3d6000fd5b505050506040513d601f19601f82011682018060405250810190610caf9190610f81565b507ff462ea920692bd9386170ad26f507899ceaede32a60590cc8887719fd22c43958383836040516108c793929190610f5e565b60005460ff166101cf57604051638dfc202b60e01b815260040160405180910390fd5b6001600160a01b03811681146102b457600080fd5b600080600060608486031215610d3057600080fd5b8335610d3b81610d06565b92506020840135610d4b81610d06565b929592945050506040919091013590565b600060208284031215610d6e57600080fd5b8135610d7981610d06565b9392505050565b600080600060408486031215610d9557600080fd5b833560048110610da457600080fd5b9250602084013567ffffffffffffffff811115610dc057600080fd5b8401601f81018613610dd157600080fd5b803567ffffffffffffffff811115610de857600080fd5b866020828401011115610dfa57600080fd5b939660209190910195509293505050565b600060208284031215610e1d57600080fd5b81518015158114610d7957600080fd5b634e487b7160e01b600052602160045260246000fd5b6020810160048310610e6557634e487b7160e01b600052602160045260246000fd5b91905290565b60008085851115610e7b57600080fd5b83861115610e8857600080fd5b5050820193919092039150565b60008060008060808587031215610eab57600080fd5b8435610eb681610d06565b9350602085013592506040850135610ecd81610d06565b9150606085013561ffff81168114610ee457600080fd5b939692955090935050565b6001600160a01b03948516815260208101939093529216604082015261ffff909116606082015260800190565b600080600060608486031215610f3157600080fd5b8335610f3c81610d06565b9250602084013591506040840135610f5381610d06565b809150509250925092565b6001600160a01b0393841681526020810192909252909116604082015260600190565b600060208284031215610f9357600080fd5b505191905056fea2646970667358221220ff70ec29ccd57894e455441becefdd434f5591cc4e354923be66a0db265ada8064736f6c634300081b0033",
  "devdoc": {
    "errors": {
      "EnforcedPause()": [
        {
          "details": "The operation failed because the contract is paused."
        }
      ],
      "ExpectedPause()": [
        {
          "details": "The operation failed because the contract is not paused."
        }
      ],
      "OwnableInvalidOwner(address)": [
        {
          "details": "The owner is not a valid owner account. (eg. `address(0)`)"
        }
      ],
      "OwnableUnauthorizedAccount(address)": [
        {
          "details": "The caller account is not authorized to perform an operation."
        }
      ]
    },
    "events": {
      "Paused(address)": {
        "details": "Emitted when the pause is triggered by `account`."
      },
      "Unpaused(address)": {
        "details": "Emitted when the pause is lifted by `account`."
      }
    },
    "kind": "dev",
    "methods": {
      "owner()": {
        "details": "Returns the address of the current owner."
      },
      "paused()": {
        "details": "Returns true if the contract is paused, and false otherwise."
      },
      "renounceOwnership()": {
        "details": "Leaves the contract without owner. It will not be possible to call `onlyOwner` functions. Can only be called by the current owner. NOTE: Renouncing ownership will leave the contract without an owner, thereby disabling any functionality that is only available to the owner."
      },
      "transferOwnership(address)": {
        "details": "Transfers ownership of the contract to a new account (`newOwner`). Can only be called by the current owner."
      }
    },
    "version": 1
  },
  "userdoc": {
    "kind": "user",
    "methods": {},
    "version": 1
  },
  "storageLayout": {
    "storage": [
      {
        "astId": 264,
        "contract": "src/MaxYieldUSDT.sol:MaxYieldUSDT",
        "label": "_paused",
        "offset": 0,
        "slot": "0",
        "type": "t_bool"
      },
      {
        "astId": 8,
        "contract": "src/MaxYieldUSDT.sol:MaxYieldUSDT",
        "label": "_owner",
        "offset": 1,
        "slot": "0",
        "type": "t_address"
      }
    ],
    "types": {
      "t_address": {
        "encoding": "inplace",
        "label": "address",
        "numberOfBytes": "20"
      },
      "t_bool": {
        "encoding": "inplace",
        "label": "bool",
        "numberOfBytes": "1"
      }
    }
  }
}