{
  "address": "0xD94feBFEb83e2DdaeBa691F622fc69d7de6286E1",
  "abi": [
    {
      "inputs": [
        {
          "internalType": "address",
          "name": "initialOwner",
          "type": "address"
        },
        {
          "internalType": "address",
          "name": "initHypurrfiPool",
          "type": "address"
        },
        {
          "internalType": "address",
          "name": "initHyperlendPool",
          "type": "address"
        },
        {
          "internalType": "address",
          "name": "initUsdtAddress",
          "type": "address"
        },
        {
          "internalType": "address",
          "name": "initHypurrfiAToken",
          "type": "address"
        },
        {
          "internalType": "address",
          "name": "initHyperlendAToken",
          "type": "address"
        }
      ],
      "stateMutability": "nonpayable",
      "type": "constructor"
    },
    {
      "inputs": [
        {
          "internalType": "enum MaxYieldUSDT.Action",
          "name": "action",
          "type": "uint8"
        }
      ],
      "name": "ActionNotFound",
      "type": "error"
    },
    {
      "inputs": [],
      "name": "EnforcedPause",
      "type": "error"
    },
    {
      "inputs": [],
      "name": "ExpectedPause",
      "type": "error"
    },
    {
      "inputs": [],
      "name": "InvalidAddress",
      "type": "error"
    },
    {
      "inputs": [],
      "name": "NotOwner",
      "type": "error"
    },
    {
      "inputs": [
        {
          "internalType": "address",
          "name": "owner",
          "type": "address"
        }
      ],
      "name": "OwnableInvalidOwner",
      "type": "error"
    },
    {
      "inputs": [
        {
          "internalType": "address",
          "name": "account",
          "type": "address"
        }
      ],
      "name": "OwnableUnauthorizedAccount",
      "type": "error"
    },
    {
      "inputs": [
        {
          "internalType": "address",
          "name": "token",
          "type": "address"
        }
      ],
      "name": "SafeERC20FailedOperation",
      "type": "error"
    },
    {
      "inputs": [],
      "name": "TokenNotAllowed",
      "type": "error"
    },
    {
      "anonymous": false,
      "inputs": [
        {
          "indexed": false,
          "internalType": "address",
          "name": "asset",
          "type": "address"
        },
        {
          "indexed": false,
          "internalType": "uint256",
          "name": "amount",
          "type": "uint256"
        },
        {
          "indexed": false,
          "internalType": "address",
          "name": "onBehalfOf",
          "type": "address"
        },
        {
          "indexed": false,
          "internalType": "uint16",
          "name": "referralCode",
          "type": "uint16"
        }
      ],
      "name": "HyperlendSupplyUSDT",
      "type": "event"
    },
    {
      "anonymous": false,
      "inputs": [
        {
          "indexed": false,
          "internalType": "address",
          "name": "asset",
          "type": "address"
        },
        {
          "indexed": false,
          "internalType": "uint256",
          "name": "amount",
          "type": "uint256"
        },
        {
          "indexed": false,
          "internalType": "address",
          "name": "to",
          "type": "address"
        }
      ],
      "name": "HyperlendWithdrawUSDT",
      "type": "event"
    },
    {
      "anonymous": false,
      "inputs": [
        {
          "indexed": false,
          "internalType": "address",
          "name": "asset",
          "type": "address"
        },
        {
          "indexed": false,
          "internalType": "uint256",
          "name": "amount",
          "type": "uint256"
        },
        {
          "indexed": false,
          "internalType": "address",
          "name": "onBehalfOf",
          "type": "address"
        },
        {
          "indexed": false,
          "internalType": "uint16",
          "name": "referralCode",
          "type": "uint16"
        }
      ],
      "name": "HypurrfiSupplyUSDT",
      "type": "event"
    },
    {
      "anonymous": false,
      "inputs": [
        {
          "indexed": false,
          "internalType": "address",
          "name": "asset",
          "type": "address"
        },
        {
          "indexed": false,
          "internalType": "uint256",
          "name": "amount",
          "type": "uint256"
        },
        {
          "indexed": false,
          "internalType": "address",
          "name": "to",
          "type": "address"
        }
      ],
      "name": "HypurrfiWithdrawUSDT",
      "type": "event"
    },
    {
      "anonymous": false,
      "inputs": [
        {
          "indexed": true,
          "internalType": "address",
          "name": "previousOwner",
          "type": "address"
        },
        {
          "indexed": true,
          "internalType": "address",
          "name": "newOwner",
          "type": "address"
        }
      ],
      "name": "OwnershipTransferred",
      "type": "event"
    },
    {
      "anonymous": false,
      "inputs": [
        {
          "indexed": false,
          "internalType": "address",
          "name": "account",
          "type": "address"
        }
      ],
      "name": "Paused",
      "type": "event"
    },
    {
      "anonymous": false,
      "inputs": [
        {
          "indexed": false,
          "internalType": "address",
          "name": "account",
          "type": "address"
        }
      ],
      "name": "Unpaused",
      "type": "event"
    },
    {
      "inputs": [
        {
          "internalType": "enum MaxYieldUSDT.Action",
          "name": "action",
          "type": "uint8"
        },
        {
          "internalType": "bytes",
          "name": "data",
          "type": "bytes"
        }
      ],
      "name": "execute",
      "outputs": [],
      "stateMutability": "nonpayable",
      "type": "function"
    },
    {
      "inputs": [],
      "name": "hyperlendAToken",
      "outputs": [
        {
          "internalType": "contract IERC20Burnable",
          "name": "",
          "type": "address"
        }
      ],
      "stateMutability": "view",
      "type": "function"
    },
    {
      "inputs": [],
      "name": "hyperlendPool",
      "outputs": [
        {
          "internalType": "contract IPool",
          "name": "",
          "type": "address"
        }
      ],
      "stateMutability": "view",
      "type": "function"
    },
    {
      "inputs": [],
      "name": "hypurrfiAToken",
      "outputs": [
        {
          "internalType": "contract IERC20Burnable",
          "name": "",
          "type": "address"
        }
      ],
      "stateMutability": "view",
      "type": "function"
    },
    {
      "inputs": [],
      "name": "hypurrfiPool",
      "outputs": [
        {
          "internalType": "contract IPool",
          "name": "",
          "type": "address"
        }
      ],
      "stateMutability": "view",
      "type": "function"
    },
    {
      "inputs": [],
      "name": "owner",
      "outputs": [
        {
          "internalType": "address",
          "name": "",
          "type": "address"
        }
      ],
      "stateMutability": "view",
      "type": "function"
    },
    {
      "inputs": [],
      "name": "pause",
      "outputs": [],
      "stateMutability": "nonpayable",
      "type": "function"
    },
    {
      "inputs": [],
      "name": "paused",
      "outputs": [
        {
          "internalType": "bool",
          "name": "",
          "type": "bool"
        }
      ],
      "stateMutability": "view",
      "type": "function"
    },
    {
      "inputs": [],
      "name": "renounceOwnership",
      "outputs": [],
      "stateMutability": "nonpayable",
      "type": "function"
    },
    {
      "inputs": [
        {
          "internalType": "address",
          "name": "newOwner",
          "type": "address"
        }
      ],
      "name": "transferOwnership",
      "outputs": [],
      "stateMutability": "nonpayable",
      "type": "function"
    },
    {
      "inputs": [],
      "name": "unpause",
      "outputs": [],
      "stateMutability": "nonpayable",
      "type": "function"
    },
    {
      "inputs": [],
      "name": "usdt",
      "outputs": [
        {
          "internalType": "contract IERC20Burnable",
          "name": "",
          "type": "address"
        }
      ],
      "stateMutability": "view",
      "type": "function"
    },
    {
      "inputs": [
        {
          "internalType": "address",
          "name": "token",
          "type": "address"
        },
        {
          "internalType": "address",
          "name": "to",
          "type": "address"
        },
        {
          "internalType": "uint256",
          "name": "amount",
          "type": "uint256"
        }
      ],
      "name": "withdrawERC20",
      "outputs": [],
      "stateMutability": "nonpayable",
      "type": "function"
    }
  ],
  "transactionHash": "0xe564fd5e43ff0c0d5956af3cf83ee99901609d2d84566c6f4025bfaaf6649adb",
  "args": [
    "0x0A25D6bB86908A2a87d29034A0D07294C972EafE",
    "0xceCcE0EB9DD2Ef7996e01e25DD70e461F918A14b",
    "0x00A89d7a5A02160f20150EbEA7a2b5E4879A1A8b",
    "0xB8CE59FC3717ada4C02eaDF9682A9e934F625ebb",
    "0x1Ca7e21B2dAa5Ab2eB9de7cf8f34dCf9c8683007",
    "0x10982ad645D5A112606534d8567418Cf64c14cB5"
  ],
  "numDeployments": 2,
  "solcInputHash": "814a7e42e1b3f65da500bf00d9ddd13b",
  "bytecode": "0x61012060405234801561001157600080fd5b506040516113d73803806113d783398101604081905261003091610179565b856001600160a01b03811661005f57604051631e4fbdf760e01b81526000600482015260240160405180910390fd5b61006881610104565b506001600160a01b038516158061008657506001600160a01b038416155b8061009857506001600160a01b038316155b806100aa57506001600160a01b038216155b806100bc57506001600160a01b038116155b156100da5760405163e6c4247b60e01b815260040160405180910390fd5b6001600160a01b0394851660805292841660a05290831660c052821660e0521661010052506101ed565b600080546001600160a01b03838116610100818102610100600160a81b0319851617855560405193049190911692909183917f8be0079c531659141344cd1fd0a4f28419497f9722a3daafe3b4186f6b6457e091a35050565b80516001600160a01b038116811461017457600080fd5b919050565b60008060008060008060c0878903121561019257600080fd5b61019b8761015d565b95506101a96020880161015d565b94506101b76040880161015d565b93506101c56060880161015d565b92506101d36080880161015d565b91506101e160a0880161015d565b90509295509295509295565b60805160a05160c05160e051610100516111376102a06000396000818160d90152610b460152600081816101c401526107b801526000818161011d01528181610541015281816105c7015281816105fc01528181610732015281816108df015281816109650152818161099a0152610ac0015260008181610177015281816109bc015281816109f80152610b850152600081816101eb0152818161061e0152818161065a01526107f701526111376000f3fe608060405234801561001057600080fd5b50600436106100cf5760003560e01c8063715018a61161008c578063db7dda0e11610066578063db7dda0e146101bf578063ed597335146101e6578063f2fde38b1461020d578063fb4d364c1461022057600080fd5b8063715018a6146101995780638456cb59146101a15780638da5cb5b146101a957600080fd5b806320fabd32146100d45780632f48ab7d146101185780633f4ba83a1461013f57806344004cc1146101495780635c975abb1461015c578063660dc85414610172575b600080fd5b6100fb7f000000000000000000000000000000000000000000000000000000000000000081565b6040516001600160a01b0390911681526020015b60405180910390f35b6100fb7f000000000000000000000000000000000000000000000000000000000000000081565b610147610233565b005b610147610157366004610e83565b610245565b60005460ff16604051901515815260200161010f565b6100fb7f000000000000000000000000000000000000000000000000000000000000000081565b610147610266565b610147610278565b60005461010090046001600160a01b03166100fb565b6100fb7f000000000000000000000000000000000000000000000000000000000000000081565b6100fb7f000000000000000000000000000000000000000000000000000000000000000081565b61014761021b366004610ec4565b610288565b61014761022e366004610ee8565b6102cb565b61023b61037a565b6102436103ad565b565b61024d61037a565b6102616001600160a01b03841683836103ff565b505050565b61026e61037a565b610243600061045e565b61028061037a565b6102436104b7565b61029061037a565b6001600160a01b0381166102bf57604051631e4fbdf760e01b8152600060048201526024015b60405180910390fd5b6102c88161045e565b50565b6102d36104f4565b60008360038111156102e7576102e7610f73565b036102f6576102618282610518565b600183600381111561030a5761030a610f73565b0361031957610261828261070c565b600283600381111561032d5761032d610f73565b0361033c5761026182826108b6565b600383600381111561035057610350610f73565b0361035f576102618282610a9a565b8260405163f41c569960e01b81526004016102b69190610f89565b6000546001600160a01b036101009091041633146102435760405163118cdaa760e01b81523360048201526024016102b6565b6103b5610c35565b6000805460ff191690557f5db9ee0a495bf2e6ff9c91a7834c1ba4fdd244a5e8aa4e537bd38aeae4b073aa335b6040516001600160a01b03909116815260200160405180910390a1565b6040516001600160a01b0383811660248301526044820183905261026191859182169063a9059cbb906064015b604051602081830303815290604052915060e01b6020820180516001600160e01b038381831617835250505050610c58565b600080546001600160a01b03838116610100818102610100600160a81b0319851617855560405193049190911692909183917f8be0079c531659141344cd1fd0a4f28419497f9722a3daafe3b4186f6b6457e091a35050565b6104bf6104f4565b6000805460ff191660011790557f62e78cea01bee320cd4e420270b5ea74000d11b0c9f74754ebdbfc544b05a2586103e23390565b60005460ff16156102435760405163d93c066560e01b815260040160405180910390fd5b600080808061052a8560048189610fb1565b8101906105379190610fdb565b93509350935093507f00000000000000000000000000000000000000000000000000000000000000006001600160a01b0316846001600160a01b0316146105915760405163514e24c360e11b815260040160405180910390fd5b6001600160a01b03821633146105ba576040516330cd747160e01b815260040160405180910390fd5b6105ef6001600160a01b037f000000000000000000000000000000000000000000000000000000000000000016333086610ccf565b6106436001600160a01b037f0000000000000000000000000000000000000000000000000000000000000000167f000000000000000000000000000000000000000000000000000000000000000085610d08565b60405163617ba03760e01b81526001600160a01b037f0000000000000000000000000000000000000000000000000000000000000000169063617ba03790610695908790879087908790600401611035565b600060405180830381600087803b1580156106af57600080fd5b505af11580156106c3573d6000803e3d6000fd5b505050507fac64f987f0d2d5fde94defaafaf69556662762861ce9dd8758af434a5abfb5ab848484846040516106fc9493929190611035565b60405180910390a1505050505050565b6000808061071d8460048188610fb1565b81019061072a9190611062565b9250925092507f00000000000000000000000000000000000000000000000000000000000000006001600160a01b0316836001600160a01b0316146107825760405163514e24c360e11b815260040160405180910390fd5b6001600160a01b03811633146107ab576040516330cd747160e01b815260040160405180910390fd5b6107e06001600160a01b037f000000000000000000000000000000000000000000000000000000000000000016333085610ccf565b604051631a4ca37b60e21b81526001600160a01b037f000000000000000000000000000000000000000000000000000000000000000016906369328dec90610830908690869086906004016110a4565b6020604051808303816000875af115801561084f573d6000803e3d6000fd5b505050506040513d601f19601f8201168201806040525081019061087391906110c7565b507f7c4f9de23999ac6f8aab61d58c5146e463a8b6524b8b3c533cb44ef749471ffd8383836040516108a7939291906110a4565b60405180910390a15050505050565b60008080806108c88560048189610fb1565b8101906108d59190610fdb565b93509350935093507f00000000000000000000000000000000000000000000000000000000000000006001600160a01b0316846001600160a01b03161461092f5760405163514e24c360e11b815260040160405180910390fd5b6001600160a01b0382163314610958576040516330cd747160e01b815260040160405180910390fd5b61098d6001600160a01b037f000000000000000000000000000000000000000000000000000000000000000016333086610ccf565b6109e16001600160a01b037f0000000000000000000000000000000000000000000000000000000000000000167f000000000000000000000000000000000000000000000000000000000000000085610d08565b60405163617ba03760e01b81526001600160a01b037f0000000000000000000000000000000000000000000000000000000000000000169063617ba03790610a33908790879087908790600401611035565b600060405180830381600087803b158015610a4d57600080fd5b505af1158015610a61573d6000803e3d6000fd5b505050507f6da70d058b0fa53652e0d06f358a33911cd52ad832976c6d8c69a07b4af7a460848484846040516106fc9493929190611035565b60008080610aab8460048188610fb1565b810190610ab89190611062565b9250925092507f00000000000000000000000000000000000000000000000000000000000000006001600160a01b0316836001600160a01b031614610b105760405163514e24c360e11b815260040160405180910390fd5b6001600160a01b0381163314610b39576040516330cd747160e01b815260040160405180910390fd5b610b6e6001600160a01b037f000000000000000000000000000000000000000000000000000000000000000016333085610ccf565b604051631a4ca37b60e21b81526001600160a01b037f000000000000000000000000000000000000000000000000000000000000000016906369328dec90610bbe908690869086906004016110a4565b6020604051808303816000875af1158015610bdd573d6000803e3d6000fd5b505050506040513d601f19601f82011682018060405250810190610c0191906110c7565b507ff462ea920692bd9386170ad26f507899ceaede32a60590cc8887719fd22c43958383836040516108a7939291906110a4565b60005460ff1661024357604051638dfc202b60e01b815260040160405180910390fd5b600080602060008451602086016000885af180610c7b576040513d6000823e3d81fd5b50506000513d91508115610c93578060011415610ca0565b6001600160a01b0384163b155b15610cc957604051635274afe760e01b81526001600160a01b03851660048201526024016102b6565b50505050565b6040516001600160a01b038481166024830152838116604483015260648201839052610cc99186918216906323b872dd9060840161042c565b604051636eb1769f60e11b81523060048201526001600160a01b0383811660248301526000919085169063dd62ed3e90604401602060405180830381865afa158015610d58573d6000803e3d6000fd5b505050506040513d601f19601f82011682018060405250810190610d7c91906110c7565b9050610cc98484610d8d85856110e0565b604080516001600160a01b038416602482015260448082018490528251808303909101815260649091019091526020810180516001600160e01b031663095ea7b360e01b179052610dde8482610e1d565b610cc9576040516001600160a01b03848116602483015260006044830152610e1391869182169063095ea7b39060640161042c565b610cc98482610c58565b6000806000806020600086516020880160008a5af192503d91506000519050828015610e6257508115610e535780600114610e62565b6000866001600160a01b03163b115b93505050505b92915050565b6001600160a01b03811681146102c857600080fd5b600080600060608486031215610e9857600080fd5b8335610ea381610e6e565b92506020840135610eb381610e6e565b929592945050506040919091013590565b600060208284031215610ed657600080fd5b8135610ee181610e6e565b9392505050565b600080600060408486031215610efd57600080fd5b833560048110610f0c57600080fd5b9250602084013567ffffffffffffffff811115610f2857600080fd5b8401601f81018613610f3957600080fd5b803567ffffffffffffffff811115610f5057600080fd5b866020828401011115610f6257600080fd5b939660209190910195509293505050565b634e487b7160e01b600052602160045260246000fd5b6020810160048310610fab57634e487b7160e01b600052602160045260246000fd5b91905290565b60008085851115610fc157600080fd5b83861115610fce57600080fd5b5050820193919092039150565b60008060008060808587031215610ff157600080fd5b8435610ffc81610e6e565b935060208501359250604085013561101381610e6e565b9150606085013561ffff8116811461102a57600080fd5b939692955090935050565b6001600160a01b03948516815260208101939093529216604082015261ffff909116606082015260800190565b60008060006060848603121561107757600080fd5b833561108281610e6e565b925060208401359150604084013561109981610e6e565b809150509250925092565b6001600160a01b0393841681526020810192909252909116604082015260600190565b6000602082840312156110d957600080fd5b5051919050565b80820180821115610e6857634e487b7160e01b600052601160045260246000fdfea2646970667358221220d6ffdee5494a50c48dd23b978553ef4c22178e323c28ce4c2a74e076463ffbc964736f6c634300081b0033",
  "devdoc": {
    "errors": {
      "EnforcedPause()": [
        {
          "details": "The operation failed because the contract is paused."
        }
      ],
      "ExpectedPause()": [
        {
          "details": "The operation failed because the contract is not paused."
        }
      ],
      "OwnableInvalidOwner(address)": [
        {
          "details": "The owner is not a valid owner account. (eg. `address(0)`)"
        }
      ],
      "OwnableUnauthorizedAccount(address)": [
        {
          "details": "The caller account is not authorized to perform an operation."
        }
      ],
      "SafeERC20FailedOperation(address)": [
        {
          "details": "An operation with an ERC-20 token failed."
        }
      ]
    },
    "events": {
      "Paused(address)": {
        "details": "Emitted when the pause is triggered by `account`."
      },
      "Unpaused(address)": {
        "details": "Emitted when the pause is lifted by `account`."
      }
    },
    "kind": "dev",
    "methods": {
      "owner()": {
        "details": "Returns the address of the current owner."
      },
      "paused()": {
        "details": "Returns true if the contract is paused, and false otherwise."
      },
      "renounceOwnership()": {
        "details": "Leaves the contract without owner. It will not be possible to call `onlyOwner` functions. Can only be called by the current owner. NOTE: Renouncing ownership will leave the contract without an owner, thereby disabling any functionality that is only available to the owner."
      },
      "transferOwnership(address)": {
        "details": "Transfers ownership of the contract to a new account (`newOwner`). Can only be called by the current owner."
      }
    },
    "version": 1
  },
  "userdoc": {
    "kind": "user",
    "methods": {},
    "version": 1
  },
  "storageLayout": {
    "storage": [
      {
        "astId": 818,
        "contract": "src/MaxYieldUSDT.sol:MaxYieldUSDT",
        "label": "_paused",
        "offset": 0,
        "slot": "0",
        "type": "t_bool"
      },
      {
        "astId": 8,
        "contract": "src/MaxYieldUSDT.sol:MaxYieldUSDT",
        "label": "_owner",
        "offset": 1,
        "slot": "0",
        "type": "t_address"
      }
    ],
    "types": {
      "t_address": {
        "encoding": "inplace",
        "label": "address",
        "numberOfBytes": "20"
      },
      "t_bool": {
        "encoding": "inplace",
        "label": "bool",
        "numberOfBytes": "1"
      }
    }
  }
}