{
  "address": "0xeCe3825f25765b101F8D85eAd3C7bCE7379A1692",
  "abi": [
    {
      "inputs": [],
      "stateMutability": "nonpayable",
      "type": "constructor"
    },
    {
      "inputs": [
        {
          "internalType": "address",
          "name": "target",
          "type": "address"
        },
        {
          "internalType": "bytes4",
          "name": "selector",
          "type": "bytes4"
        }
      ],
      "name": "ActionNotFound",
      "type": "error"
    },
    {
      "inputs": [
        {
          "internalType": "address",
          "name": "target",
          "type": "address"
        },
        {
          "internalType": "bytes4",
          "name": "selector",
          "type": "bytes4"
        },
        {
          "internalType": "uint8",
          "name": "index",
          "type": "uint8"
        }
      ],
      "name": "ActionParamRoleAlreadyExists",
      "type": "error"
    },
    {
      "inputs": [
        {
          "internalType": "address",
          "name": "target",
          "type": "address"
        },
        {
          "internalType": "bytes4",
          "name": "selector",
          "type": "bytes4"
        },
        {
          "internalType": "uint8",
          "name": "index",
          "type": "uint8"
        }
      ],
      "name": "ActionParamRoleInvalid",
      "type": "error"
    },
    {
      "inputs": [
        {
          "internalType": "address",
          "name": "target",
          "type": "address"
        },
        {
          "internalType": "bytes4",
          "name": "selector",
          "type": "bytes4"
        },
        {
          "internalType": "uint8",
          "name": "index",
          "type": "uint8"
        }
      ],
      "name": "ActionParamRoleNotFound",
      "type": "error"
    },
    {
      "inputs": [
        {
          "internalType": "address",
          "name": "target",
          "type": "address"
        },
        {
          "internalType": "bytes4",
          "name": "selector",
          "type": "bytes4"
        }
      ],
      "name": "ExecuteFailed",
      "type": "error"
    },
    {
      "inputs": [
        {
          "internalType": "bytes",
          "name": "data",
          "type": "bytes"
        }
      ],
      "name": "InvalidData",
      "type": "error"
    },
    {
      "inputs": [
        {
          "internalType": "address",
          "name": "target",
          "type": "address"
        },
        {
          "internalType": "bytes4",
          "name": "selector",
          "type": "bytes4"
        }
      ],
      "name": "SelectorAlreadyExists",
      "type": "error"
    },
    {
      "anonymous": false,
      "inputs": [
        {
          "indexed": false,
          "internalType": "address",
          "name": "target",
          "type": "address"
        },
        {
          "indexed": false,
          "internalType": "bytes4",
          "name": "selector",
          "type": "bytes4"
        }
      ],
      "name": "ActionAdded",
      "type": "event"
    },
    {
      "anonymous": false,
      "inputs": [
        {
          "indexed": false,
          "internalType": "address",
          "name": "target",
          "type": "address"
        },
        {
          "indexed": false,
          "internalType": "bytes",
          "name": "data",
          "type": "bytes"
        }
      ],
      "name": "ActionExecuted",
      "type": "event"
    },
    {
      "anonymous": false,
      "inputs": [
        {
          "indexed": false,
          "internalType": "address",
          "name": "target",
          "type": "address"
        },
        {
          "indexed": false,
          "internalType": "bytes4",
          "name": "selector",
          "type": "bytes4"
        },
        {
          "indexed": false,
          "internalType": "uint8",
          "name": "index",
          "type": "uint8"
        },
        {
          "indexed": false,
          "internalType": "bool",
          "name": "onlySender",
          "type": "bool"
        }
      ],
      "name": "ActionParamRoleAdded",
      "type": "event"
    },
    {
      "anonymous": false,
      "inputs": [
        {
          "indexed": false,
          "internalType": "address",
          "name": "target",
          "type": "address"
        },
        {
          "indexed": false,
          "internalType": "bytes4",
          "name": "selector",
          "type": "bytes4"
        },
        {
          "indexed": false,
          "internalType": "uint8",
          "name": "index",
          "type": "uint8"
        }
      ],
      "name": "ActionParamRoleRemoved",
      "type": "event"
    },
    {
      "anonymous": false,
      "inputs": [
        {
          "indexed": false,
          "internalType": "address",
          "name": "target",
          "type": "address"
        },
        {
          "indexed": false,
          "internalType": "bytes4",
          "name": "selector",
          "type": "bytes4"
        }
      ],
      "name": "ActionRemoved",
      "type": "event"
    },
    {
      "anonymous": false,
      "inputs": [
        {
          "indexed": false,
          "internalType": "uint8",
          "name": "version",
          "type": "uint8"
        }
      ],
      "name": "Initialized",
      "type": "event"
    },
    {
      "anonymous": false,
      "inputs": [
        {
          "indexed": false,
          "internalType": "address",
          "name": "account",
          "type": "address"
        }
      ],
      "name": "Paused",
      "type": "event"
    },
    {
      "anonymous": false,
      "inputs": [
        {
          "indexed": true,
          "internalType": "bytes32",
          "name": "role",
          "type": "bytes32"
        },
        {
          "indexed": true,
          "internalType": "bytes32",
          "name": "previousAdminRole",
          "type": "bytes32"
        },
        {
          "indexed": true,
          "internalType": "bytes32",
          "name": "newAdminRole",
          "type": "bytes32"
        }
      ],
      "name": "RoleAdminChanged",
      "type": "event"
    },
    {
      "anonymous": false,
      "inputs": [
        {
          "indexed": true,
          "internalType": "bytes32",
          "name": "role",
          "type": "bytes32"
        },
        {
          "indexed": true,
          "internalType": "address",
          "name": "account",
          "type": "address"
        },
        {
          "indexed": true,
          "internalType": "address",
          "name": "sender",
          "type": "address"
        }
      ],
      "name": "RoleGranted",
      "type": "event"
    },
    {
      "anonymous": false,
      "inputs": [
        {
          "indexed": true,
          "internalType": "bytes32",
          "name": "role",
          "type": "bytes32"
        },
        {
          "indexed": true,
          "internalType": "address",
          "name": "account",
          "type": "address"
        },
        {
          "indexed": true,
          "internalType": "address",
          "name": "sender",
          "type": "address"
        }
      ],
      "name": "RoleRevoked",
      "type": "event"
    },
    {
      "anonymous": false,
      "inputs": [
        {
          "indexed": false,
          "internalType": "address",
          "name": "account",
          "type": "address"
        }
      ],
      "name": "Unpaused",
      "type": "event"
    },
    {
      "inputs": [],
      "name": "DEFAULT_ADMIN_ROLE",
      "outputs": [
        {
          "internalType": "bytes32",
          "name": "",
          "type": "bytes32"
        }
      ],
      "stateMutability": "view",
      "type": "function"
    },
    {
      "inputs": [],
      "name": "OPERATOR_ROLE",
      "outputs": [
        {
          "internalType": "bytes32",
          "name": "",
          "type": "bytes32"
        }
      ],
      "stateMutability": "view",
      "type": "function"
    },
    {
      "inputs": [
        {
          "internalType": "address",
          "name": "",
          "type": "address"
        },
        {
          "internalType": "bytes4",
          "name": "",
          "type": "bytes4"
        },
        {
          "internalType": "uint256",
          "name": "",
          "type": "uint256"
        }
      ],
      "name": "actionParamRoles",
      "outputs": [
        {
          "internalType": "uint8",
          "name": "index",
          "type": "uint8"
        },
        {
          "internalType": "bool",
          "name": "onlySender",
          "type": "bool"
        }
      ],
      "stateMutability": "view",
      "type": "function"
    },
    {
      "inputs": [
        {
          "internalType": "address",
          "name": "target",
          "type": "address"
        },
        {
          "internalType": "bytes4",
          "name": "selector",
          "type": "bytes4"
        }
      ],
      "name": "actionParamRolesLength",
      "outputs": [
        {
          "internalType": "uint256",
          "name": "",
          "type": "uint256"
        }
      ],
      "stateMutability": "view",
      "type": "function"
    },
    {
      "inputs": [
        {
          "internalType": "address",
          "name": "",
          "type": "address"
        },
        {
          "internalType": "uint256",
          "name": "",
          "type": "uint256"
        }
      ],
      "name": "actions",
      "outputs": [
        {
          "internalType": "bytes4",
          "name": "",
          "type": "bytes4"
        }
      ],
      "stateMutability": "view",
      "type": "function"
    },
    {
      "inputs": [
        {
          "internalType": "address",
          "name": "target",
          "type": "address"
        }
      ],
      "name": "actionsLength",
      "outputs": [
        {
          "internalType": "uint256",
          "name": "",
          "type": "uint256"
        }
      ],
      "stateMutability": "view",
      "type": "function"
    },
    {
      "inputs": [
        {
          "internalType": "address",
          "name": "target",
          "type": "address"
        },
        {
          "internalType": "bytes4",
          "name": "selector",
          "type": "bytes4"
        }
      ],
      "name": "addAction",
      "outputs": [],
      "stateMutability": "nonpayable",
      "type": "function"
    },
    {
      "inputs": [
        {
          "internalType": "address",
          "name": "target",
          "type": "address"
        },
        {
          "internalType": "bytes4",
          "name": "selector",
          "type": "bytes4"
        },
        {
          "internalType": "uint8",
          "name": "index",
          "type": "uint8"
        },
        {
          "internalType": "bool",
          "name": "onlySender",
          "type": "bool"
        }
      ],
      "name": "addActionParamRole",
      "outputs": [],
      "stateMutability": "nonpayable",
      "type": "function"
    },
    {
      "inputs": [
        {
          "internalType": "address",
          "name": "target",
          "type": "address"
        },
        {
          "internalType": "bytes4",
          "name": "selector",
          "type": "bytes4"
        },
        {
          "internalType": "bytes",
          "name": "data",
          "type": "bytes"
        }
      ],
      "name": "execute",
      "outputs": [],
      "stateMutability": "nonpayable",
      "type": "function"
    },
    {
      "inputs": [
        {
          "internalType": "address",
          "name": "target",
          "type": "address"
        },
        {
          "internalType": "bytes4",
          "name": "selector",
          "type": "bytes4"
        }
      ],
      "name": "getActionParamRoles",
      "outputs": [
        {
          "components": [
            {
              "internalType": "uint8",
              "name": "index",
              "type": "uint8"
            },
            {
              "internalType": "bool",
              "name": "onlySender",
              "type": "bool"
            }
          ],
          "internalType": "struct Strategy.ActionParamRole[]",
          "name": "",
          "type": "tuple[]"
        }
      ],
      "stateMutability": "view",
      "type": "function"
    },
    {
      "inputs": [
        {
          "internalType": "address",
          "name": "target",
          "type": "address"
        }
      ],
      "name": "getActions",
      "outputs": [
        {
          "internalType": "bytes4[]",
          "name": "",
          "type": "bytes4[]"
        }
      ],
      "stateMutability": "view",
      "type": "function"
    },
    {
      "inputs": [
        {
          "internalType": "bytes32",
          "name": "role",
          "type": "bytes32"
        }
      ],
      "name": "getRoleAdmin",
      "outputs": [
        {
          "internalType": "bytes32",
          "name": "",
          "type": "bytes32"
        }
      ],
      "stateMutability": "view",
      "type": "function"
    },
    {
      "inputs": [
        {
          "internalType": "bytes32",
          "name": "role",
          "type": "bytes32"
        },
        {
          "internalType": "address",
          "name": "account",
          "type": "address"
        }
      ],
      "name": "grantRole",
      "outputs": [],
      "stateMutability": "nonpayable",
      "type": "function"
    },
    {
      "inputs": [
        {
          "internalType": "bytes32",
          "name": "role",
          "type": "bytes32"
        },
        {
          "internalType": "address",
          "name": "account",
          "type": "address"
        }
      ],
      "name": "hasRole",
      "outputs": [
        {
          "internalType": "bool",
          "name": "",
          "type": "bool"
        }
      ],
      "stateMutability": "view",
      "type": "function"
    },
    {
      "inputs": [
        {
          "internalType": "address",
          "name": "defaultAdmin",
          "type": "address"
        },
        {
          "internalType": "address",
          "name": "operator",
          "type": "address"
        }
      ],
      "name": "initialize",
      "outputs": [],
      "stateMutability": "nonpayable",
      "type": "function"
    },
    {
      "inputs": [],
      "name": "pause",
      "outputs": [],
      "stateMutability": "nonpayable",
      "type": "function"
    },
    {
      "inputs": [],
      "name": "paused",
      "outputs": [
        {
          "internalType": "bool",
          "name": "",
          "type": "bool"
        }
      ],
      "stateMutability": "view",
      "type": "function"
    },
    {
      "inputs": [
        {
          "internalType": "address",
          "name": "target",
          "type": "address"
        },
        {
          "internalType": "bytes4",
          "name": "selector",
          "type": "bytes4"
        }
      ],
      "name": "removeAction",
      "outputs": [],
      "stateMutability": "nonpayable",
      "type": "function"
    },
    {
      "inputs": [
        {
          "internalType": "address",
          "name": "target",
          "type": "address"
        },
        {
          "internalType": "bytes4",
          "name": "selector",
          "type": "bytes4"
        },
        {
          "internalType": "uint8",
          "name": "index",
          "type": "uint8"
        }
      ],
      "name": "removeActionParamRole",
      "outputs": [],
      "stateMutability": "nonpayable",
      "type": "function"
    },
    {
      "inputs": [
        {
          "internalType": "bytes32",
          "name": "role",
          "type": "bytes32"
        },
        {
          "internalType": "address",
          "name": "account",
          "type": "address"
        }
      ],
      "name": "renounceRole",
      "outputs": [],
      "stateMutability": "nonpayable",
      "type": "function"
    },
    {
      "inputs": [
        {
          "internalType": "bytes32",
          "name": "role",
          "type": "bytes32"
        },
        {
          "internalType": "address",
          "name": "account",
          "type": "address"
        }
      ],
      "name": "revokeRole",
      "outputs": [],
      "stateMutability": "nonpayable",
      "type": "function"
    },
    {
      "inputs": [
        {
          "internalType": "bytes4",
          "name": "interfaceId",
          "type": "bytes4"
        }
      ],
      "name": "supportsInterface",
      "outputs": [
        {
          "internalType": "bool",
          "name": "",
          "type": "bool"
        }
      ],
      "stateMutability": "view",
      "type": "function"
    },
    {
      "inputs": [],
      "name": "unpause",
      "outputs": [],
      "stateMutability": "nonpayable",
      "type": "function"
    },
    {
      "inputs": [
        {
          "internalType": "address",
          "name": "token",
          "type": "address"
        },
        {
          "internalType": "address",
          "name": "to",
          "type": "address"
        },
        {
          "internalType": "uint256",
          "name": "amount",
          "type": "uint256"
        }
      ],
      "name": "withdrawERC20",
      "outputs": [],
      "stateMutability": "nonpayable",
      "type": "function"
    },
    {
      "inputs": [
        {
          "internalType": "address",
          "name": "to",
          "type": "address"
        },
        {
          "internalType": "uint256",
          "name": "amount",
          "type": "uint256"
        }
      ],
      "name": "withdrawETH",
      "outputs": [],
      "stateMutability": "nonpayable",
      "type": "function"
    },
    {
      "stateMutability": "payable",
      "type": "receive"
    }
  ],
  "transactionHash": "0x2e050bcf3fcfa0a091faccf4bae7692fb28d010b2fcc40ed2ceb1dc01c1a4597",
  "args": [],
  "numDeployments": 1,
  "solcInputHash": "23b37a83ecbc9d8474fdd041c708124f",
  "bytecode": "0x6080604052348015600f57600080fd5b506016601a565b60d7565b600054610100900460ff161560855760405162461bcd60e51b815260206004820152602760248201527f496e697469616c697a61626c653a20636f6e747261637420697320696e697469604482015266616c697a696e6760c81b606482015260840160405180910390fd5b60005460ff9081161460d5576000805460ff191660ff9081179091556040519081527f7f26b83ff96e1f2b6a682f133852f6798a09c465da95921460cefb38474024989060200160405180910390a15b565b61213d806100e66000396000f3fe60806040526004361061016a5760003560e01c80636e9a82ca116100d1578063a38a80951161008a578063df99d9ec11610064578063df99d9ec1461049a578063ef5ebd08146104ba578063f5b541a6146104f3578063f9b733591461051557600080fd5b8063a38a809514610424578063c14022761461045a578063d547741f1461047a57600080fd5b80636e9a82ca146103545780636f8f04ea1461038d5780638456cb59146103ad5780638ccc0f92146103c257806391d14854146103ef578063a217fddf1461040f57600080fd5b806337d32a171161012357806337d32a171461029a5780633f4ba83a146102c757806344004cc1146102dc5780634782f779146102fc578063485cc9551461031c5780635c975abb1461033c57600080fd5b806301ffc9a714610176578063120d1e9b146101ab578063248a9ca3146101cd5780632852e4e51461020b5780632f2ff15d1461025a57806336568abe1461027a57600080fd5b3661017157005b600080fd5b34801561018257600080fd5b50610196610191366004611a5b565b610535565b60405190151581526020015b60405180910390f35b3480156101b757600080fd5b506101cb6101c6366004611aac565b61056c565b005b3480156101d957600080fd5b506101fd6101e8366004611b02565b60009081526097602052604090206001015490565b6040519081526020016101a2565b34801561021757600080fd5b506101fd610226366004611b1b565b6001600160a01b038216600090815260ca602090815260408083206001600160e01b03198516845290915290205492915050565b34801561026657600080fd5b506101cb610275366004611b4e565b61070a565b34801561028657600080fd5b506101cb610295366004611b4e565b610734565b3480156102a657600080fd5b506102ba6102b5366004611b1b565b6107b2565b6040516101a29190611b71565b3480156102d357600080fd5b506101cb61084b565b3480156102e857600080fd5b506101cb6102f7366004611bc5565b61086e565b34801561030857600080fd5b506101cb610317366004611c02565b6108f3565b34801561032857600080fd5b506101cb610337366004611c2c565b61098a565b34801561034857600080fd5b5060335460ff16610196565b34801561036057600080fd5b5061037461036f366004611c56565b610ac8565b6040805160ff90931683529015156020830152016101a2565b34801561039957600080fd5b506101cb6103a8366004611c82565b610b11565b3480156103b957600080fd5b506101cb610d49565b3480156103ce57600080fd5b506103e26103dd366004611cc5565b610d69565b6040516101a29190611ce0565b3480156103fb57600080fd5b5061019661040a366004611b4e565b610e02565b34801561041b57600080fd5b506101fd600081565b34801561043057600080fd5b506101fd61043f366004611cc5565b6001600160a01b0316600090815260c9602052604090205490565b34801561046657600080fd5b506101cb610475366004611b1b565b610e2d565b34801561048657600080fd5b506101cb610495366004611b4e565b611058565b3480156104a657600080fd5b506101cb6104b5366004611d22565b61107d565b3480156104c657600080fd5b506104da6104d5366004611c02565b6113fa565b6040516001600160e01b031990911681526020016101a2565b3480156104ff57600080fd5b506101fd6000805160206120e883398151915281565b34801561052157600080fd5b506101cb610530366004611b1b565b611440565b60006001600160e01b03198216637965db0b60e01b148061056657506301ffc9a760e01b6001600160e01b03198316145b92915050565b6000805160206120e883398151915261058481611590565b60005b6001600160a01b038616600090815260ca602090815260408083206001600160e01b031989168452909152902054811015610645576001600160a01b038616600090815260ca602090815260408083206001600160e01b0319891684529091529020805460ff861691908390811061060157610601611db3565b60009182526020909120015460ff160361063d57858585604051630f76ae7b60e41b815260040161063493929190611dc9565b60405180910390fd5b600101610587565b506001600160a01b038516600081815260ca602090815260408083206001600160e01b031989168085529083528184208251808401845260ff8a81168083528a15158388018181528554600181018755958a52988890209351939094018054985115156101000261ffff1990991693909216929092179690961790955582519586529285015283019190915260608201527fba3aaa2e45e41949cbed3975136496e85fe9dc01527367bae27394918db3b67c9060800160405180910390a15050505050565b60008281526097602052604090206001015461072581611590565b61072f838361159a565b505050565b6001600160a01b03811633146107a45760405162461bcd60e51b815260206004820152602f60248201527f416363657373436f6e74726f6c3a2063616e206f6e6c792072656e6f756e636560448201526e103937b632b9903337b91039b2b63360891b6064820152608401610634565b6107ae8282611620565b5050565b6001600160a01b038216600090815260ca602090815260408083206001600160e01b0319851684528252808320805482518185028101850190935280835260609492939192909184015b8282101561083f576000848152602090819020604080518082019091529084015460ff8082168352610100909104161515818301528252600190920191016107fc565b50505050905092915050565b6000805160206120e883398151915261086381611590565b61086b611687565b50565b600061087981611590565b60405163a9059cbb60e01b81526001600160a01b0384811660048301526024820184905285169063a9059cbb906044016020604051808303816000875af11580156108c8573d6000803e3d6000fd5b505050506040513d601f19601f820116820180604052508101906108ec9190611df7565b5050505050565b60006108fe81611590565b6000836001600160a01b03168360405160006040518083038185875af1925050503d806000811461094b576040519150601f19603f3d011682016040523d82523d6000602084013e610950565b606091505b50509050806109845760405163331a3fff60e01b81526001600160a01b038516600482015260006024820152604401610634565b50505050565b600054610100900460ff16158080156109aa5750600054600160ff909116105b806109c45750303b1580156109c4575060005460ff166001145b610a275760405162461bcd60e51b815260206004820152602e60248201527f496e697469616c697a61626c653a20636f6e747261637420697320616c72656160448201526d191e481a5b9a5d1a585b1a5e995960921b6064820152608401610634565b6000805460ff191660011790558015610a4a576000805461ff0019166101001790555b610a526116d9565b610a5a61170a565b610a6560008461159a565b610a7d6000805160206120e88339815191528361159a565b801561072f576000805461ff0019169055604051600181527f7f26b83ff96e1f2b6a682f133852f6798a09c465da95921460cefb3847402498906020015b60405180910390a1505050565b60ca6020528260005260406000206020528160005260406000208181548110610af057600080fd5b60009182526020909120015460ff8082169450610100909104169150839050565b6000805160206120e8833981519152610b2981611590565b60005b6001600160a01b038516600090815260ca602090815260408083206001600160e01b031988168452909152902054811015610d29576001600160a01b038516600090815260ca602090815260408083206001600160e01b0319881684529091529020805460ff8516919083908110610ba657610ba6611db3565b60009182526020909120015460ff1603610d21576001600160a01b038516600090815260ca602090815260408083206001600160e01b03198816845290915290208054610bf590600190611e2a565b81548110610c0557610c05611db3565b600091825260208083206001600160a01b038916845260ca825260408085206001600160e01b03198a16865290925292208054929091019183908110610c4d57610c4d611db3565b6000918252602080832084549201805460ff93841660ff19821681178355955461ffff19909116909517610100958690049093161515909402919091179092556001600160a01b038716815260ca825260408082206001600160e01b03198816835290925220805480610cc257610cc2611e3d565b6000828152602090208101600019908101805461ffff191690550190556040517fdc1a6522a795c670e1997a8f13fe99899e2cf8c58fa4ae543df3639965213f5a90610d1390879087908790611dc9565b60405180910390a150610984565b600101610b2c565b5083838360405163e984a6ed60e01b815260040161063493929190611dc9565b6000805160206120e8833981519152610d6181611590565b61086b611731565b6001600160a01b038116600090815260c96020908152604091829020805483518184028101840190945280845260609392830182828015610df657602002820191906000526020600020906000905b82829054906101000a900460e01b6001600160e01b03191681526020019060040190602082600301049283019260010382029150808411610db85790505b50505050509050919050565b60009182526097602090815260408084206001600160a01b0393909316845291905290205460ff1690565b6000805160206120e8833981519152610e4581611590565b60005b6001600160a01b038416600090815260c9602052604090205481101561103a576001600160a01b038416600090815260c96020526040902080546001600160e01b03198516919083908110610e9f57610e9f611db3565b90600052602060002090600891828204019190066004029054906101000a900460e01b6001600160e01b03191603611032576001600160a01b038416600090815260c9602052604090208054610ef790600190611e2a565b81548110610f0757610f07611db3565b90600052602060002090600891828204019190066004029054906101000a900460e01b60c96000866001600160a01b03166001600160a01b031681526020019081526020016000208281548110610f6057610f60611db3565b90600052602060002090600891828204019190066004026101000a81548163ffffffff021916908360e01c021790555060c96000856001600160a01b03166001600160a01b03168152602001908152602001600020805480610fc457610fc4611e3d565b600082815260209020600860001990920191820401805463ffffffff600460078516026101000a021916905590556040517fe144d6e329236e5d16186c49439aabb02b89d9461c87dc02973b042d49ef7afa906110249086908690611e53565b60405180910390a150505050565b600101610e48565b508282604051633c50887f60e11b8152600401610634929190611e53565b60008281526097602052604090206001015461107381611590565b61072f8383611620565b61108561176e565b60048110156110ab578181604051632a62609b60e01b8152600401610634929190611e9f565b60006110ba6004828486611ebb565b6110c391611ee5565b90506001600160e01b0319808216908516146110f6578282604051632a62609b60e01b8152600401610634929190611e9f565b6000805b6001600160a01b038716600090815260c96020526040902054811015611194576001600160a01b038716600090815260c96020526040902080546001600160e01b0319881691908390811061115157611151611db3565b90600052602060002090600891828204019190066004029054906101000a900460e01b6001600160e01b0319160361118c5760019150611194565b6001016110fa565b50806111b7578585604051633c50887f60e11b8152600401610634929190611e53565b6001600160a01b038616600090815260ca602090815260408083206001600160e01b031989168452909152812054905b81811015611330576001600160a01b038816600090815260ca602090815260408083206001600160e01b03198b168452909152812080548390811061122e5761122e611db3565b60009182526020808320909101546001600160a01b038c16835260ca825260408084206001600160e01b03198d168552909252908220805460ff9092169350908490811061127e5761127e611db3565b600091825260208083209091015460ff610100909104169250899089906112a6908690611f1d565b6112b1906004611f34565b906112bd866001611f34565b6112c8906020611f1d565b6112d3906004611f34565b926112e093929190611ebb565b6112e991611f47565b90508180156113015750336001600160a01b03821614155b15611325578a8a8460405163130ed29f60e21b815260040161063493929190611dc9565b5050506001016111e7565b506000876001600160a01b0316868660405161134d929190611f65565b6000604051808303816000865af19150503d806000811461138a576040519150601f19603f3d011682016040523d82523d6000602084013e61138f565b606091505b50509050806113b557878760405163331a3fff60e01b8152600401610634929190611e53565b7fd7d62979ae48a176c84f013982271cb0978ab8192f62cf045874ae8a1cf767fc8887876040516113e893929190611f75565b60405180910390a15050505050505050565b60c9602052816000526040600020818154811061141657600080fd5b9060005260206000209060089182820401919006600402915091509054906101000a900460e01b81565b6000805160206120e883398151915261145881611590565b60005b6001600160a01b038416600090815260c96020526040902054811015611509576001600160a01b038416600090815260c96020526040902080546001600160e01b031985169190839081106114b2576114b2611db3565b90600052602060002090600891828204019190066004029054906101000a900460e01b6001600160e01b03191603611501578383604051631f99c4e160e21b8152600401610634929190611e53565b60010161145b565b506001600160a01b038316600090815260c9602090815260408083208054600181018255908452919092206008820401805463ffffffff60079093166004026101000a928302191660e086901c92909202919091179055517fcb9d51ecec70286481b06328b2803ff907a9753588e1d0701d84ed8a387afa1890610abb9085908590611e53565b61086b81336117b4565b6115a48282610e02565b6107ae5760008281526097602090815260408083206001600160a01b03851684529091529020805460ff191660011790556115dc3390565b6001600160a01b0316816001600160a01b0316837f2f8788117e7eff1d82e926ec794901d17c78024a50270940304540a733656f0d60405160405180910390a45050565b61162a8282610e02565b156107ae5760008281526097602090815260408083206001600160a01b0385168085529252808320805460ff1916905551339285917ff6391f5c32d9c69d2a47ea670b442974b53935d1edc7fd64eb21e047a839171b9190a45050565b61168f61180d565b6033805460ff191690557f5db9ee0a495bf2e6ff9c91a7834c1ba4fdd244a5e8aa4e537bd38aeae4b073aa335b6040516001600160a01b03909116815260200160405180910390a1565b600054610100900460ff166117005760405162461bcd60e51b815260040161063490611fa3565b611708611856565b565b600054610100900460ff166117085760405162461bcd60e51b815260040161063490611fa3565b61173961176e565b6033805460ff191660011790557f62e78cea01bee320cd4e420270b5ea74000d11b0c9f74754ebdbfc544b05a2586116bc3390565b60335460ff16156117085760405162461bcd60e51b815260206004820152601060248201526f14185d5cd8589b194e881c185d5cd95960821b6044820152606401610634565b6117be8282610e02565b6107ae576117cb81611889565b6117d683602061189b565b6040516020016117e7929190612012565b60408051601f198184030181529082905262461bcd60e51b825261063491600401612087565b60335460ff166117085760405162461bcd60e51b815260206004820152601460248201527314185d5cd8589b194e881b9bdd081c185d5cd95960621b6044820152606401610634565b600054610100900460ff1661187d5760405162461bcd60e51b815260040161063490611fa3565b6033805460ff19169055565b60606105666001600160a01b03831660145b606060006118aa836002611f1d565b6118b5906002611f34565b67ffffffffffffffff8111156118cd576118cd6120ba565b6040519080825280601f01601f1916602001820160405280156118f7576020820181803683370190505b509050600360fc1b8160008151811061191257611912611db3565b60200101906001600160f81b031916908160001a905350600f60fb1b8160018151811061194157611941611db3565b60200101906001600160f81b031916908160001a9053506000611965846002611f1d565b611970906001611f34565b90505b60018111156119e8576f181899199a1a9b1b9c1cb0b131b232b360811b85600f16601081106119a4576119a4611db3565b1a60f81b8282815181106119ba576119ba611db3565b60200101906001600160f81b031916908160001a90535060049490941c936119e1816120d0565b9050611973565b508315611a375760405162461bcd60e51b815260206004820181905260248201527f537472696e67733a20686578206c656e67746820696e73756666696369656e746044820152606401610634565b9392505050565b80356001600160e01b031981168114611a5657600080fd5b919050565b600060208284031215611a6d57600080fd5b611a3782611a3e565b80356001600160a01b0381168114611a5657600080fd5b803560ff81168114611a5657600080fd5b801515811461086b57600080fd5b60008060008060808587031215611ac257600080fd5b611acb85611a76565b9350611ad960208601611a3e565b9250611ae760408601611a8d565b91506060850135611af781611a9e565b939692955090935050565b600060208284031215611b1457600080fd5b5035919050565b60008060408385031215611b2e57600080fd5b611b3783611a76565b9150611b4560208401611a3e565b90509250929050565b60008060408385031215611b6157600080fd5b82359150611b4560208401611a76565b602080825282518282018190526000918401906040840190835b81811015611bba578351805160ff16845260209081015115158185015290930192604090920191600101611b8b565b509095945050505050565b600080600060608486031215611bda57600080fd5b611be384611a76565b9250611bf160208501611a76565b929592945050506040919091013590565b60008060408385031215611c1557600080fd5b611c1e83611a76565b946020939093013593505050565b60008060408385031215611c3f57600080fd5b611c4883611a76565b9150611b4560208401611a76565b600080600060608486031215611c6b57600080fd5b611c7484611a76565b9250611bf160208501611a3e565b600080600060608486031215611c9757600080fd5b611ca084611a76565b9250611cae60208501611a3e565b9150611cbc60408501611a8d565b90509250925092565b600060208284031215611cd757600080fd5b611a3782611a76565b602080825282518282018190526000918401906040840190835b81811015611bba5783516001600160e01b031916835260209384019390920191600101611cfa565b60008060008060608587031215611d3857600080fd5b611d4185611a76565b9350611d4f60208601611a3e565b9250604085013567ffffffffffffffff811115611d6b57600080fd5b8501601f81018713611d7c57600080fd5b803567ffffffffffffffff811115611d9357600080fd5b876020828401011115611da557600080fd5b949793965060200194505050565b634e487b7160e01b600052603260045260246000fd5b6001600160a01b039390931683526001600160e01b031991909116602083015260ff16604082015260600190565b600060208284031215611e0957600080fd5b8151611a3781611a9e565b634e487b7160e01b600052601160045260246000fd5b8181038181111561056657610566611e14565b634e487b7160e01b600052603160045260246000fd5b6001600160a01b039290921682526001600160e01b031916602082015260400190565b81835281816020850137506000828201602090810191909152601f909101601f19169091010190565b602081526000611eb3602083018486611e76565b949350505050565b60008085851115611ecb57600080fd5b83861115611ed857600080fd5b5050820193919092039150565b80356001600160e01b03198116906004841015611f16576001600160e01b0319600485900360031b81901b82161691505b5092915050565b808202811582820484141761056657610566611e14565b8082018082111561056657610566611e14565b8035602083101561056657600019602084900360031b1b1692915050565b8183823760009101908152919050565b6001600160a01b0384168152604060208201819052600090611f9a9083018486611e76565b95945050505050565b6020808252602b908201527f496e697469616c697a61626c653a20636f6e7472616374206973206e6f74206960408201526a6e697469616c697a696e6760a81b606082015260800190565b60005b83811015612009578181015183820152602001611ff1565b50506000910152565b7f416363657373436f6e74726f6c3a206163636f756e742000000000000000000081526000835161204a816017850160208801611fee565b7001034b99036b4b9b9b4b733903937b6329607d1b601791840191820152835161207b816028840160208801611fee565b01602801949350505050565b60208152600082518060208401526120a6816040850160208701611fee565b601f01601f19169190910160400192915050565b634e487b7160e01b600052604160045260246000fd5b6000816120df576120df611e14565b50600019019056fe97667070c54ef182b0f5858b034beac1b6f3089aa2d3188bb1e8929f4fa9b929a2646970667358221220b297b83e3ea13d8e2ddbf0bea0bbdcef480637a21b0eef9f627831a1714454b764736f6c634300081b0033",
  "devdoc": {
    "events": {
      "Initialized(uint8)": {
        "details": "Triggered when the contract has been initialized or reinitialized."
      },
      "Paused(address)": {
        "details": "Emitted when the pause is triggered by `account`."
      },
      "RoleAdminChanged(bytes32,bytes32,bytes32)": {
        "details": "Emitted when `newAdminRole` is set as ``role``'s admin role, replacing `previousAdminRole` `DEFAULT_ADMIN_ROLE` is the starting admin for all roles, despite {RoleAdminChanged} not being emitted signaling this. _Available since v3.1._"
      },
      "RoleGranted(bytes32,address,address)": {
        "details": "Emitted when `account` is granted `role`. `sender` is the account that originated the contract call, an admin role bearer except when using {AccessControl-_setupRole}."
      },
      "RoleRevoked(bytes32,address,address)": {
        "details": "Emitted when `account` is revoked `role`. `sender` is the account that originated the contract call:   - if using `revokeRole`, it is the admin role bearer   - if using `renounceRole`, it is the role bearer (i.e. `account`)"
      },
      "Unpaused(address)": {
        "details": "Emitted when the pause is lifted by `account`."
      }
    },
    "kind": "dev",
    "methods": {
      "constructor": {
        "custom:oz-upgrades-unsafe-allow": "constructor"
      },
      "getRoleAdmin(bytes32)": {
        "details": "Returns the admin role that controls `role`. See {grantRole} and {revokeRole}. To change a role's admin, use {_setRoleAdmin}."
      },
      "grantRole(bytes32,address)": {
        "details": "Grants `role` to `account`. If `account` had not been already granted `role`, emits a {RoleGranted} event. Requirements: - the caller must have ``role``'s admin role. May emit a {RoleGranted} event."
      },
      "hasRole(bytes32,address)": {
        "details": "Returns `true` if `account` has been granted `role`."
      },
      "paused()": {
        "details": "Returns true if the contract is paused, and false otherwise."
      },
      "renounceRole(bytes32,address)": {
        "details": "Revokes `role` from the calling account. Roles are often managed via {grantRole} and {revokeRole}: this function's purpose is to provide a mechanism for accounts to lose their privileges if they are compromised (such as when a trusted device is misplaced). If the calling account had been revoked `role`, emits a {RoleRevoked} event. Requirements: - the caller must be `account`. May emit a {RoleRevoked} event."
      },
      "revokeRole(bytes32,address)": {
        "details": "Revokes `role` from `account`. If `account` had been granted `role`, emits a {RoleRevoked} event. Requirements: - the caller must have ``role``'s admin role. May emit a {RoleRevoked} event."
      },
      "supportsInterface(bytes4)": {
        "details": "See {IERC165-supportsInterface}."
      }
    },
    "version": 1
  },
  "userdoc": {
    "kind": "user",
    "methods": {},
    "version": 1
  },
  "storageLayout": {
    "storage": [
      {
        "astId": 416,
        "contract": "src/strategy.sol:Strategy",
        "label": "_initialized",
        "offset": 0,
        "slot": "0",
        "type": "t_uint8"
      },
      {
        "astId": 419,
        "contract": "src/strategy.sol:Strategy",
        "label": "_initializing",
        "offset": 1,
        "slot": "0",
        "type": "t_bool"
      },
      {
        "astId": 1086,
        "contract": "src/strategy.sol:Strategy",
        "label": "__gap",
        "offset": 0,
        "slot": "1",
        "type": "t_array(t_uint256)50_storage"
      },
      {
        "astId": 600,
        "contract": "src/strategy.sol:Strategy",
        "label": "_paused",
        "offset": 0,
        "slot": "51",
        "type": "t_bool"
      },
      {
        "astId": 705,
        "contract": "src/strategy.sol:Strategy",
        "label": "__gap",
        "offset": 0,
        "slot": "52",
        "type": "t_array(t_uint256)49_storage"
      },
      {
        "astId": 1360,
        "contract": "src/strategy.sol:Strategy",
        "label": "__gap",
        "offset": 0,
        "slot": "101",
        "type": "t_array(t_uint256)50_storage"
      },
      {
        "astId": 28,
        "contract": "src/strategy.sol:Strategy",
        "label": "_roles",
        "offset": 0,
        "slot": "151",
        "type": "t_mapping(t_bytes32,t_struct(RoleData)23_storage)"
      },
      {
        "astId": 335,
        "contract": "src/strategy.sol:Strategy",
        "label": "__gap",
        "offset": 0,
        "slot": "152",
        "type": "t_array(t_uint256)49_storage"
      },
      {
        "astId": 2453,
        "contract": "src/strategy.sol:Strategy",
        "label": "actions",
        "offset": 0,
        "slot": "201",
        "type": "t_mapping(t_address,t_array(t_bytes4)dyn_storage)"
      },
      {
        "astId": 2461,
        "contract": "src/strategy.sol:Strategy",
        "label": "actionParamRoles",
        "offset": 0,
        "slot": "202",
        "type": "t_mapping(t_address,t_mapping(t_bytes4,t_array(t_struct(ActionParamRole)2448_storage)dyn_storage))"
      }
    ],
    "types": {
      "t_address": {
        "encoding": "inplace",
        "label": "address",
        "numberOfBytes": "20"
      },
      "t_array(t_bytes4)dyn_storage": {
        "base": "t_bytes4",
        "encoding": "dynamic_array",
        "label": "bytes4[]",
        "numberOfBytes": "32"
      },
      "t_array(t_struct(ActionParamRole)2448_storage)dyn_storage": {
        "base": "t_struct(ActionParamRole)2448_storage",
        "encoding": "dynamic_array",
        "label": "struct Strategy.ActionParamRole[]",
        "numberOfBytes": "32"
      },
      "t_array(t_uint256)49_storage": {
        "base": "t_uint256",
        "encoding": "inplace",
        "label": "uint256[49]",
        "numberOfBytes": "1568"
      },
      "t_array(t_uint256)50_storage": {
        "base": "t_uint256",
        "encoding": "inplace",
        "label": "uint256[50]",
        "numberOfBytes": "1600"
      },
      "t_bool": {
        "encoding": "inplace",
        "label": "bool",
        "numberOfBytes": "1"
      },
      "t_bytes32": {
        "encoding": "inplace",
        "label": "bytes32",
        "numberOfBytes": "32"
      },
      "t_bytes4": {
        "encoding": "inplace",
        "label": "bytes4",
        "numberOfBytes": "4"
      },
      "t_mapping(t_address,t_array(t_bytes4)dyn_storage)": {
        "encoding": "mapping",
        "key": "t_address",
        "label": "mapping(address => bytes4[])",
        "numberOfBytes": "32",
        "value": "t_array(t_bytes4)dyn_storage"
      },
      "t_mapping(t_address,t_bool)": {
        "encoding": "mapping",
        "key": "t_address",
        "label": "mapping(address => bool)",
        "numberOfBytes": "32",
        "value": "t_bool"
      },
      "t_mapping(t_address,t_mapping(t_bytes4,t_array(t_struct(ActionParamRole)2448_storage)dyn_storage))": {
        "encoding": "mapping",
        "key": "t_address",
        "label": "mapping(address => mapping(bytes4 => struct Strategy.ActionParamRole[]))",
        "numberOfBytes": "32",
        "value": "t_mapping(t_bytes4,t_array(t_struct(ActionParamRole)2448_storage)dyn_storage)"
      },
      "t_mapping(t_bytes32,t_struct(RoleData)23_storage)": {
        "encoding": "mapping",
        "key": "t_bytes32",
        "label": "mapping(bytes32 => struct AccessControlUpgradeable.RoleData)",
        "numberOfBytes": "32",
        "value": "t_struct(RoleData)23_storage"
      },
      "t_mapping(t_bytes4,t_array(t_struct(ActionParamRole)2448_storage)dyn_storage)": {
        "encoding": "mapping",
        "key": "t_bytes4",
        "label": "mapping(bytes4 => struct Strategy.ActionParamRole[])",
        "numberOfBytes": "32",
        "value": "t_array(t_struct(ActionParamRole)2448_storage)dyn_storage"
      },
      "t_struct(ActionParamRole)2448_storage": {
        "encoding": "inplace",
        "label": "struct Strategy.ActionParamRole",
        "members": [
          {
            "astId": 2445,
            "contract": "src/strategy.sol:Strategy",
            "label": "index",
            "offset": 0,
            "slot": "0",
            "type": "t_uint8"
          },
          {
            "astId": 2447,
            "contract": "src/strategy.sol:Strategy",
            "label": "onlySender",
            "offset": 1,
            "slot": "0",
            "type": "t_bool"
          }
        ],
        "numberOfBytes": "32"
      },
      "t_struct(RoleData)23_storage": {
        "encoding": "inplace",
        "label": "struct AccessControlUpgradeable.RoleData",
        "members": [
          {
            "astId": 20,
            "contract": "src/strategy.sol:Strategy",
            "label": "members",
            "offset": 0,
            "slot": "0",
            "type": "t_mapping(t_address,t_bool)"
          },
          {
            "astId": 22,
            "contract": "src/strategy.sol:Strategy",
            "label": "adminRole",
            "offset": 0,
            "slot": "1",
            "type": "t_bytes32"
          }
        ],
        "numberOfBytes": "64"
      },
      "t_uint256": {
        "encoding": "inplace",
        "label": "uint256",
        "numberOfBytes": "32"
      },
      "t_uint8": {
        "encoding": "inplace",
        "label": "uint8",
        "numberOfBytes": "1"
      }
    }
  }
}